{
  "_format": "hh-sol-artifact-1",
  "contractName": "WavePortal",
  "sourceName": "contracts/WavePortal.sol",
  "abi": [
    {
      "inputs": [],
      "stateMutability": "payable",
      "type": "constructor"
    },
    {
      "anonymous": false,
      "inputs": [
        {
          "indexed": true,
          "internalType": "address",
          "name": "from",
          "type": "address"
        },
        {
          "indexed": false,
          "internalType": "uint256",
          "name": "timestamp",
          "type": "uint256"
        },
        {
          "indexed": false,
          "internalType": "string",
          "name": "message",
          "type": "string"
        }
      ],
      "name": "NewWave",
      "type": "event"
    },
    {
      "inputs": [],
      "name": "getAddress",
      "outputs": [
        {
          "internalType": "address[]",
          "name": "",
          "type": "address[]"
        }
      ],
      "stateMutability": "view",
      "type": "function"
    },
    {
      "inputs": [],
      "name": "getAllWaves",
      "outputs": [
        {
          "components": [
            {
              "internalType": "address",
              "name": "waver",
              "type": "address"
            },
            {
              "internalType": "string",
              "name": "message",
              "type": "string"
            },
            {
              "internalType": "uint256",
              "name": "timestamp",
              "type": "uint256"
            }
          ],
          "internalType": "struct WavePortal.Wave[]",
          "name": "",
          "type": "tuple[]"
        }
      ],
      "stateMutability": "view",
      "type": "function"
    },
    {
      "inputs": [],
      "name": "getTotalWaves",
      "outputs": [
        {
          "internalType": "uint256",
          "name": "",
          "type": "uint256"
        }
      ],
      "stateMutability": "view",
      "type": "function"
    },
    {
      "inputs": [
        {
          "internalType": "string",
          "name": "_message",
          "type": "string"
        }
      ],
      "name": "wave",
      "outputs": [],
      "stateMutability": "nonpayable",
      "type": "function"
    }
  ],
  "bytecode": "0x60806040526200004f6040518060400160405280601981526020017f4920414d20534d41525420434f4e54524143542e20504f472e000000000000008152506200005560201b620005c71760201c565b620001e9565b620000f5816040516024016200006c919062000162565b6040516020818303038152906040527f41304fac000000000000000000000000000000000000000000000000000000007bffffffffffffffffffffffffffffffffffffffffffffffffffffffff19166020820180517bffffffffffffffffffffffffffffffffffffffffffffffffffffffff8381831617835250505050620000f860201b60201c565b50565b60008151905060006a636f6e736f6c652e6c6f679050602083016000808483855afa5050505050565b60006200012e8262000186565b6200013a818562000191565b93506200014c818560208601620001a2565b6200015781620001d8565b840191505092915050565b600060208201905081810360008301526200017e818462000121565b905092915050565b600081519050919050565b600082825260208201905092915050565b60005b83811015620001c2578082015181840152602081019050620001a5565b83811115620001d2576000848401525b50505050565b6000601f19601f8301169050919050565b61108580620001f96000396000f3fe608060405234801561001057600080fd5b506004361061004c5760003560e01c806338cc483114610051578063449d46c01461006f5780639a2cdc081461008b578063bd43a908146100a9575b600080fd5b6100596100c7565b6040516100669190610b88565b60405180910390f35b610089600480360381019061008491906108cc565b610155565b005b61009361042b565b6040516100a09190610c8e565b60405180910390f35b6100b1610476565b6040516100be9190610baa565b60405180910390f35b6060600180548060200260200160405190810160405280929190818152602001828054801561014b57602002820191906000526020600020905b8160009054906101000a900473ffffffffffffffffffffffffffffffffffffffff1673ffffffffffffffffffffffffffffffffffffffff1681526020019060010190808311610101575b5050505050905090565b60016000808282546101679190610dd9565b925050819055506001339080600181540180825580915050600190039060005260206000200160009091909190916101000a81548173ffffffffffffffffffffffffffffffffffffffff021916908373ffffffffffffffffffffffffffffffffffffffff160217905550600260405180606001604052803373ffffffffffffffffffffffffffffffffffffffff16815260200183815260200142815250908060018154018082558091505060019003906000526020600020906003020160009091909190915060008201518160000160006101000a81548173ffffffffffffffffffffffffffffffffffffffff021916908373ffffffffffffffffffffffffffffffffffffffff16021790555060208201518160010190805190602001906102909291906107c1565b506040820151816002015550503373ffffffffffffffffffffffffffffffffffffffff167f5f7e16dc676677766a70e9c5628aa6c54ddb8b6e5188e2ae1e1f17f1ffbea71642836040516102e5929190610ca9565b60405180910390a26000655af3107a400090504781111561033b576040517f08c379a000000000000000000000000000000000000000000000000000000000815260040161033290610c4e565b60405180910390fd5b60003373ffffffffffffffffffffffffffffffffffffffff168260405161036190610b73565b60006040518083038185875af1925050503d806000811461039e576040519150601f19603f3d011682016040523d82523d6000602084013e6103a3565b606091505b50509050806103e7576040517f08c379a00000000000000000000000000000000000000000000000000000000081526004016103de90610c6e565b60405180910390fd5b6104266040518060400160405280600d81526020017f257320686173207761766564210000000000000000000000000000000000000081525033610660565b505050565b600061046e6040518060400160405280601781526020017f5765206861766520256420746f74616c207761766573210000000000000000008152506000546106fc565b600054905090565b60606002805480602002602001604051908101604052809291908181526020016000905b828210156105be57838290600052602060002090600302016040518060600160405290816000820160009054906101000a900473ffffffffffffffffffffffffffffffffffffffff1673ffffffffffffffffffffffffffffffffffffffff1673ffffffffffffffffffffffffffffffffffffffff16815260200160018201805461052390610ead565b80601f016020809104026020016040519081016040528092919081815260200182805461054f90610ead565b801561059c5780601f106105715761010080835404028352916020019161059c565b820191906000526020600020905b81548152906001019060200180831161057f57829003601f168201915b505050505081526020016002820154815250508152602001906001019061049a565b50505050905090565b61065d816040516024016105db9190610bcc565b6040516020818303038152906040527f41304fac000000000000000000000000000000000000000000000000000000007bffffffffffffffffffffffffffffffffffffffffffffffffffffffff19166020820180517bffffffffffffffffffffffffffffffffffffffffffffffffffffffff8381831617835250505050610798565b50565b6106f88282604051602401610676929190610bee565b6040516020818303038152906040527f319af333000000000000000000000000000000000000000000000000000000007bffffffffffffffffffffffffffffffffffffffffffffffffffffffff19166020820180517bffffffffffffffffffffffffffffffffffffffffffffffffffffffff8381831617835250505050610798565b5050565b6107948282604051602401610712929190610c1e565b6040516020818303038152906040527f9710a9d0000000000000000000000000000000000000000000000000000000007bffffffffffffffffffffffffffffffffffffffffffffffffffffffff19166020820180517bffffffffffffffffffffffffffffffffffffffffffffffffffffffff8381831617835250505050610798565b5050565b60008151905060006a636f6e736f6c652e6c6f679050602083016000808483855afa5050505050565b8280546107cd90610ead565b90600052602060002090601f0160209004810192826107ef5760008555610836565b82601f1061080857805160ff1916838001178555610836565b82800160010185558215610836579182015b8281111561083557825182559160200191906001019061081a565b5b5090506108439190610847565b5090565b5b80821115610860576000816000905550600101610848565b5090565b600061087761087284610cfe565b610cd9565b90508281526020810184848401111561088f57600080fd5b61089a848285610e6b565b509392505050565b600082601f8301126108b357600080fd5b81356108c3848260208601610864565b91505092915050565b6000602082840312156108de57600080fd5b600082013567ffffffffffffffff8111156108f857600080fd5b610904848285016108a2565b91505092915050565b60006109198383610939565b60208301905092915050565b60006109318383610b05565b905092915050565b61094281610e2f565b82525050565b61095181610e2f565b82525050565b600061096282610d4f565b61096c8185610d8a565b935061097783610d2f565b8060005b838110156109a857815161098f888261090d565b975061099a83610d70565b92505060018101905061097b565b5085935050505092915050565b60006109c082610d5a565b6109ca8185610d9b565b9350836020820285016109dc85610d3f565b8060005b85811015610a1857848403895281516109f98582610925565b9450610a0483610d7d565b925060208a019950506001810190506109e0565b50829750879550505050505092915050565b6000610a3582610d65565b610a3f8185610db7565b9350610a4f818560208601610e7a565b610a5881610f9d565b840191505092915050565b6000610a6e82610d65565b610a788185610dc8565b9350610a88818560208601610e7a565b610a9181610f9d565b840191505092915050565b6000610aa9603483610dc8565b9150610ab482610fae565b604082019050919050565b6000610acc602783610dc8565b9150610ad782610ffd565b604082019050919050565b6000610aef600083610dac565b9150610afa8261104c565b600082019050919050565b6000606083016000830151610b1d6000860182610939565b5060208301518482036020860152610b358282610a2a565b9150506040830151610b4a6040860182610b55565b508091505092915050565b610b5e81610e61565b82525050565b610b6d81610e61565b82525050565b6000610b7e82610ae2565b9150819050919050565b60006020820190508181036000830152610ba28184610957565b905092915050565b60006020820190508181036000830152610bc481846109b5565b905092915050565b60006020820190508181036000830152610be68184610a63565b905092915050565b60006040820190508181036000830152610c088185610a63565b9050610c176020830184610948565b9392505050565b60006040820190508181036000830152610c388185610a63565b9050610c476020830184610b64565b9392505050565b60006020820190508181036000830152610c6781610a9c565b9050919050565b60006020820190508181036000830152610c8781610abf565b9050919050565b6000602082019050610ca36000830184610b64565b92915050565b6000604082019050610cbe6000830185610b64565b8181036020830152610cd08184610a63565b90509392505050565b6000610ce3610cf4565b9050610cef8282610edf565b919050565b6000604051905090565b600067ffffffffffffffff821115610d1957610d18610f6e565b5b610d2282610f9d565b9050602081019050919050565b6000819050602082019050919050565b6000819050602082019050919050565b600081519050919050565b600081519050919050565b600081519050919050565b6000602082019050919050565b6000602082019050919050565b600082825260208201905092915050565b600082825260208201905092915050565b600081905092915050565b600082825260208201905092915050565b600082825260208201905092915050565b6000610de482610e61565b9150610def83610e61565b9250827fffffffffffffffffffffffffffffffffffffffffffffffffffffffffffffffff03821115610e2457610e23610f10565b5b828201905092915050565b6000610e3a82610e41565b9050919050565b600073ffffffffffffffffffffffffffffffffffffffff82169050919050565b6000819050919050565b82818337600083830152505050565b60005b83811015610e98578082015181840152602081019050610e7d565b83811115610ea7576000848401525b50505050565b60006002820490506001821680610ec557607f821691505b60208210811415610ed957610ed8610f3f565b5b50919050565b610ee882610f9d565b810181811067ffffffffffffffff82111715610f0757610f06610f6e565b5b80604052505050565b7f4e487b7100000000000000000000000000000000000000000000000000000000600052601160045260246000fd5b7f4e487b7100000000000000000000000000000000000000000000000000000000600052602260045260246000fd5b7f4e487b7100000000000000000000000000000000000000000000000000000000600052604160045260246000fd5b6000601f19601f8301169050919050565b7f547279696e6720746f207769746864726177206d6f7265206d6f6e657920746860008201527f616e2074686520636f6e7472616374206861732e000000000000000000000000602082015250565b7f4661696c656420746f207769746864726177206d6f6e65792066726f6d20636f60008201527f6e74726163742e00000000000000000000000000000000000000000000000000602082015250565b5056fea264697066735822122024b79a08c8ba81946e1a3a1d47415f4b0cff18297904c18cdce66271f973591264736f6c63430008040033",
  "linkReferences": {},
  "deployedLinkReferences": {}
}